:020000041000EA
:1000000080B582B000AF00237B6000F025F80300CC
:100010007B607B681800BD4602B080BD0548854600
:10002000FFF7EEFFFEE70160704700687047013898
:10003000FDD170470010002080B500AFC046BD461E
:1000400080BD80B500AFC046BD4680BD80B500AF65
:0800500000231800BD4680BD2D
:1000580080B500AF204B20211800FFF7E0FF1F4BB1
:100068001800FFF7DEFF03002022134000D1F6E757
:10007800C04680239B041A4A19001000FFF7CFFFDF
:1000880080239B04174A19001000FFF7C8FF164B7E
:1000980005211800FFF7C3FF80239B04134A1900AA
:1000A8001000FFF7BCFF80239B04114A19001000C1
:1000B800FFF7B5FF80235B031800FFF7B4FF802329
:1000C8009B04084A19001000FFF7A9FF80235B036F
:1000D8001800FFF7A8FFE6E700F0004008C000405E
:1000E800280000D0180000D0CC400140240000D0E7
:0400F800140000D020
:0400000510000000E7
:00000001FF
